:020000040000fa
:080000000002040000000000f2
:020000040000fa
:0400080038060000b6
:020000040000fa
:04000c009603000057
:020000040000fa
:04001000a803000041
:020000040000fa
:040014009e03000047
:020000040000fa
:04001800b003000031
:020000040000fa
:04001c0038060000a2
:020000040000fa
:04002000380600009e
:020000040000fa
:04002400380600009a
:020000040000fa
:040028003806000096
:020000040000fa
:04002c003806000092
:020000040000fa
:04003000380600008e
:020000040000fa
:04003400380600008a
:020000040000fa
:040038003806000086
:020000040000fa
:04003c003806000082
:020000040000fa
:04004000380600007e
:020000040000fa
:04004400380600007a
:020000040000fa
:040048005a03000057
:020000040000fa
:04004c003806000072
:020000040000fa
:04005000380600006e
:020000040000fa
:04005400b2050000f1
:020000040000fa
:040058005c05000043
:020000040000fa
:04005c003806000062
:020000040000fa
:04006000380600005e
:020000040000fa
:04006400380600005a
:020000040000fa
:040068003806000056
:020000040000fa
:04006c003806000052
:020000040000fa
:04007000380600004e
:020000040000fa
:040074000e06000074
:020000040000fa
:040078003806000046
:020000040000fa
:04007c003806000042
:020000040000fa
:04008000380600003e
:020000040000fa
:04008400380600003a
:020000040000fa
:040088003806000036
:020000040000fa
:04008c003806000032
:020000040000fa
:04009000380600002e
:020000040000fa
:04009400380600002a
:020000040000fa
:040098003806000026
:020000040000fa
:04009c003806000022
:020000040000fa
:0400a000380600001e
:020000040000fa
:0400a400380600001a
:020000040000fa
:0400a8003806000016
:020000040000fa
:0400ac003806000012
:020000040000fa
:0400b000380600000e
:020000040000fa
:0400b400380600000a
:020000040000fa
:0400b8003806000006
:020000040000fa
:0400bc003806000002
:020000040000fa
:0400c00038060000fe
:020000040000fa
:0400c40038060000fa
:020000040000fa
:0400c80038060000f6
:020000040000fa
:0400cc0038060000f2
:020000040000fa
:0400d00038060000ee
:020000040000fa
:0400d40038060000ea
:020000040000fa
:0400d80038060000e6
:020000040000fa
:0400dc0038060000e2
:020000040000fa
:0400e00038060000de
:020000040000fa
:0400e40038060000da
:020000040000fa
:0400e80038060000d6
:020000040000fa
:0400ec00b803000055
:020000040000fa
:0400f00038060000ce
:020000040000fa
:0400f40038060000ca
:020000040000fa
:0400f80038060000c6
:020000040000fa
:0400fc0038060000c2
:020000040000fa
:0401000038060000bd
:020000040000fa
:0401040038060000b9
:020000040000fa
:0401080038060000b5
:020000040000fa
:04010c0038060000b1
:020000040000fa
:0401100038060000ad
:020000040000fa
:0401140038060000a9
:020000040000fa
:0401180038060000a5
:020000040000fa
:04011c0038060000a1
:020000040000fa
:0401200014030000c4
:020000040000fa
:040124003806000099
:020000040000fa
:040128003806000095
:020000040000fa
:04012c00f8050000d2
:020000040000fa
:04013000380600008d
:020000040000fa
:040134003806000089
:020000040000fa
:040138003806000085
:020000040000fa
:04013c003806000081
:020000040000fa
:04014000380600007d
:020000040000fa
:040144003806000079
:020000040000fa
:040148003806000075
:020000040000fa
:04014c003806000071
:020000040000fa
:04015000380600006d
:020000040000fa
:040154003806000069
:020000040000fa
:040158003806000065
:020000040000fa
:04015c003806000061
:020000040000fa
:04016000380600005d
:020000040000fa
:040164003806000059
:020000040000fa
:040168003806000055
:020000040000fa
:04016c003806000051
:020000040000fa
:04017000380600004d
:020000040000fa
:040174003806000049
:020000040000fa
:040178003806000045
:020000040000fa
:04017c003806000041
:020000040000fa
:04018000380600003d
:020000040000fa
:040184003806000039
:020000040000fa
:040188003806000035
:020000040000fa
:04018c003806000031
:020000040000fa
:04019000380600002d
:020000040000fa
:040194003806000029
:020000040000fa
:040198003806000025
:020000040000fa
:04019c003806000021
:020000040000fa
:0401a000380600001d
:020000040000fa
:0401a4003806000019
:020000040000fa
:0401a8003806000015
:020000040000fa
:0401ac003806000011
:020000040000fa
:0401b000380600000d
:020000040000fa
:0401b4003806000009
:020000040000fa
:0401b8003806000005
:020000040000fa
:0401bc003806000001
:020000040000fa
:0401c00038060000fd
:020000040000fa
:0401c40038060000f9
:020000040000fa
:0401c80038060000f5
:020000040000fa
:0401cc0038060000f1
:020000040000fa
:0401d00038060000ed
:020000040000fa
:0401d40038060000e9
:020000040000fa
:0401d80038060000e5
:020000040000fa
:0401dc0038060000e1
:020000040000fa
:0401e00038060000dd
:020000040000fa
:0401e40038060000d9
:020000040000fa
:0401e80038060000d5
:020000040000fa
:0401ec0038060000d1
:020000040000fa
:0401f00038060000cd
:020000040000fa
:0401f40038060000c9
:020000040000fa
:0401f80038060000c5
:020000040000fa
:0401fc0038060000c1
:020000040000fa
:0402080038060000b4
:020000040000fa
:04020c009603000055
:020000040000fa
:04021000a80300003f
:020000040000fa
:040214009e03000045
:020000040000fa
:04021800b00300002f
:020000040000fa
:04021c0038060000a0
:020000040000fa
:04022000380600009c
:020000040000fa
:040224003806000098
:020000040000fa
:040228003806000094
:020000040000fa
:04022c003806000090
:020000040000fa
:04023000380600008c
:020000040000fa
:040234003806000088
:020000040000fa
:040238003806000084
:020000040000fa
:04023c003806000080
:020000040000fa
:04024000380600007c
:020000040000fa
:040244003806000078
:020000040000fa
:040248005a03000055
:020000040000fa
:04024c003806000070
:020000040000fa
:04025000380600006c
:020000040000fa
:04025400b2050000ef
:020000040000fa
:040258005c05000041
:020000040000fa
:04025c003806000060
:020000040000fa
:04026000380600005c
:020000040000fa
:040264003806000058
:020000040000fa
:040268003806000054
:020000040000fa
:04026c003806000050
:020000040000fa
:04027000380600004c
:020000040000fa
:040274000e06000072
:020000040000fa
:040278003806000044
:020000040000fa
:04027c003806000040
:020000040000fa
:04028000380600003c
:020000040000fa
:040284003806000038
:020000040000fa
:040288003806000034
:020000040000fa
:04028c003806000030
:020000040000fa
:04029000380600002c
:020000040000fa
:040294003806000028
:020000040000fa
:040298003806000024
:020000040000fa
:04029c003806000020
:020000040000fa
:0402a000380600001c
:020000040000fa
:0402a4003806000018
:020000040000fa
:0402a8003806000014
:020000040000fa
:0402ac003806000010
:020000040000fa
:0402b000380600000c
:020000040000fa
:0402b4003806000008
:020000040000fa
:0402b8003806000004
:020000040000fa
:0402bc003806000000
:020000040000fa
:0402c00038060000fc
:020000040000fa
:0402c40038060000f8
:020000040000fa
:0402c80038060000f4
:020000040000fa
:0402cc0038060000f0
:020000040000fa
:0402d00038060000ec
:020000040000fa
:0402d40038060000e8
:020000040000fa
:0402d80038060000e4
:020000040000fa
:0402dc0038060000e0
:020000040000fa
:0402e00038060000dc
:020000040000fa
:0402e40038060000d8
:020000040000fa
:0402e80038060000d4
:020000040000fa
:0402ec00b803000053
:020000040000fa
:0402f00038060000cc
:020000040000fa
:0402f40038060000c8
:020000040000fa
:0402f80038060000c4
:020000040000fa
:0402fc0038060000c0
:020000040000fa
:0403000038060000bb
:020000040000fa
:0403040038060000b7
:020000040000fa
:0403080038060000b3
:020000040000fa
:04030c0038060000af
:020000040000fa
:0403100038060000ab
:020000040000fa
:0403140038060000a7
:020000040000fa
:0403180038060000a3
:020000040000fa
:04031c00380600009f
:020000040000fa
:0403200014030000c2
:020000040000fa
:040324003806000097
:020000040000fa
:040328003806000093
:020000040000fa
:04032c00f8050000d0
:020000040000fa
:04033000380600008b
:020000040000fa
:040334003806000087
:020000040000fa
:040338003806000083
:020000040000fa
:04033c00380600007f
:020000040000fa
:04034000380600007b
:020000040000fa
:040344003806000077
:020000040000fa
:040348003806000073
:020000040000fa
:04034c00380600006f
:020000040000fa
:04035000380600006b
:020000040000fa
:040354003806000067
:020000040000fa
:040358003806000063
:020000040000fa
:04035c00380600005f
:020000040000fa
:04036000380600005b
:020000040000fa
:040364003806000057
:020000040000fa
:040368003806000053
:020000040000fa
:04036c00380600004f
:020000040000fa
:04037000380600004b
:020000040000fa
:040374003806000047
:020000040000fa
:040378003806000043
:020000040000fa
:04037c00380600003f
:020000040000fa
:04038000380600003b
:020000040000fa
:040384003806000037
:020000040000fa
:040388003806000033
:020000040000fa
:04038c00380600002f
:020000040000fa
:04039000380600002b
:020000040000fa
:040394003806000027
:020000040000fa
:040398003806000023
:020000040000fa
:04039c00380600001f
:020000040000fa
:0403a000380600001b
:020000040000fa
:0403a4003806000017
:020000040000fa
:0403a8003806000013
:020000040000fa
:0403ac00380600000f
:020000040000fa
:0403b000380600000b
:020000040000fa
:0403b4003806000007
:020000040000fa
:0403b8003806000003
:020000040000fa
:0403bc0038060000ff
:020000040000fa
:0403c00038060000fb
:020000040000fa
:0403c40038060000f7
:020000040000fa
:0403c80038060000f3
:020000040000fa
:0403cc0038060000ef
:020000040000fa
:0403d00038060000eb
:020000040000fa
:0403d40038060000e7
:020000040000fa
:0403d80038060000e3
:020000040000fa
:0403dc0038060000df
:020000040000fa
:0403e00038060000db
:020000040000fa
:0403e40038060000d7
:020000040000fa
:0403e80038060000d3
:020000040000fa
:0403ec0038060000cf
:020000040000fa
:0403f00038060000cb
:020000040000fa
:0403f40038060000c7
:020000040000fa
:0403f80038060000c3
:020000040000fa
:0403fc0038060000bf
:020000040000fa
:10040000aff120000e7f22000e01880000000000e6
:10041000000020000000e000020032000001200087
:100420002002880014000700550207000000e000c9
:1004300003003a00607d2400010020000200370024
:100440000000200001002000810f70000100320038
:1004500014000700000020000000e000020032004d
:100460000000020000000000003802000000000050
:100470000040da000000fe004440a900802f200068
:100480000000e000030032000020200090018800fe
:100490004440a800000006008a1f78008b1f7800e7
:1004a00000000600a1028800800478000000eb0034
:1004b0001f003700e284440054a0b4009905ba003c
:1004c000e284440054a0b4009906ba00e2844400d7
:1004d00054a0b4000006eb00476fde00fd07b20039
:1004e000ae018800636ce10003003a00eaff0700f8
:1004f0000000eb000e003700606ce10008003a00dd
:10050000004deb000a05e800020039003420ec0041
:100510000af0a0008b05e900f9ff3e000400370057
:100520006168e100010032000086eb000b0007006b
:1005300019c7ba001905ba000e04e00003003a001a
:100540000a00e000dbff3a0000000600fe07b200f0
:10055000ae0288008a047800f5ff37000cd0a300b3
:10056000e20f4d001c00390089027800354dba00b9
:100570000a05e800020039003420ec000af0a0006f
:100580008b05e9000f003200254dba000a05e8008e
:10059000020039003420ec000af0a0008b05e900cd
:1005a000080032000c00e0000600320015cdba0051
:1005b0000a05e800020039003420ec000af0a0002f
:1005c0008b05e9008984e80054a0b4000b00e0002a
:1005d000e2ff3a00000006009902ba00055d7800cb
:1005e0008b05e900f7ff3200c82ade00055d7800c0
:1005f0008b05e900f3ff32000c00e000f1ff320050
:1006000019ddba00eeff3700860a04000000000082
:1006100048130400000000000a1b04000000000052
:1006200000000400000000003600f800809fbe00bb
:10063000829fbe00849fbe00869fbe000000fa001d
:1006400000762a00801f78001f0807008f87e900c6
:1006500010002000a04088005040800000004000b2
:100660008000780040408000808040009040800002
:100670004200dd0080804000a04080004300dd009b
:10068000008040003041880080bb2000391b0700fb
:1006900008a1a8008bc0a9000080fa004f03be008b
:1006a0004f02be004f01be004f00be003600f900f1
:1006b000004006003600f800809fbe00829fbe000a
:1006c000849fbe00869fbe000000fa00e0438000c9
:1006d0000000e800e0438800e0438000f80f50008d
:1006e000020036009c2107007c28ef0010f120005a
:1006f000104078008040e80010f1200001487800a8
:1007000000f1200011c0b300014878008500a90065
:100710000080fa004f03be004f02be004f01be0032
:100720004f00be003600f900004006003600f80019
:100730008020a9000000eb00232407003600f80009
:10074000252407008040a900100020001e24070077
:100750003600f8008060a900200020001a2407005d
:100760003600f8008080a900300020001624070021
:100770003600f800809fbe00829fbe00849fbe00ae
:10078000869fbe000000fa00f0418000e10f50009b
:1007900003003600e20f500094003200be00370024
:1007a000a0178000680060000000e0000100320037
:1007b000f0a2a900a11780000002200000806000c4
:1007c0000000e0003a003a00a017800064006000da
:1007d0000000e0000f003a0010002000f041880007
:1007e00000000000a0178000620060000000e00030
:1007f000fcff3200501780003042880000000000eb
:10080000a0178000620060000000e000fcff3a00da
:100810002600370000000000a01780006200600082
:100820000000e000fcff32005017800030428800da
:1008300000000000a0178000620060000000e000df
:10084000fcff3a0000000000a0178000610060007b
:100850000000e000fcff3a00704280006017880052
:1008600000000000a0178000610060000000e000b0
:10087000fcff3200f182a80000000000a0178000f9
:10088000620060000000e000fcff3a000000000091
:10089000a117800000002200008060000000e0003e
:1008a000fbff3a0020002000f04188005228ef00b2
:1008b000f0418000e10f500072003a00a117800063
:1008c00000022000008060000000e0006f003200a5
:1008d000a117800000042000008060000000e000fc
:1008e0003e003a00a0178000640060000000e000b5
:1008f00068003a00904280000000e00012003a00d8
:1009000000000000a0178000620060000000e0000e
:10091000fcff3200501780004042880000000000b9
:10092000a0178000620060000000e000fcff3a00b9
:10093000904280000000e800904288004042800021
:100940004f1f07005400370090428000e10f500015
:1009500010003a0000000000a01780006200600054
:100960000000e000fcff3200501780005042880079
:1009700000000000a0178000620060000000e0009e
:10098000fcff3a00904280000000e800904288009e
:100990004100370000000000a017800062006000e6
:1009a0000000e000fcff3200501780006042880029
:1009b00000000000a0178000620060000000e0005e
:1009c000fcff3a006142800050428000631f070034
:1009d0005228ef003e28ef002f003700501780000c
:1009e00030428800f4c2a9002b003700a017800015
:1009f000680060000000e00001003200f0a2a900e1
:100a0000a117800000002800008060000000e000c6
:100a100019003a0000000000a0178000610060008b
:100a20000000e000fcff3a00804280006017880070
:100a300000000000a0178000610060000000e000de
:100a4000fcff3200f182a80000000000a017800027
:100a5000620060000000e000fcff3a0000000000bf
:100a6000a117800000002200008060000000e0006c
:100a7000fbff3a00080037003e28ef00f182a80093
:100a800005003700000000000300370000000000f0
:100a900001003700000000008a20a9000080fa0051
:100aa0004f03be004f02be004f01be004f00be000c
:100ab0003600f90000400600809fbe000000fa00ea
:100ac000516a800000202000008060000000e000eb
:100ad000020032009580a9001f0037008580a90020
:100ae00018003700406a8000104078000080fb004a
:100af00020288800406a80000000e800406a8800e2
:100b0000416a8000c0d82000808f500002003a0067
:100b1000c0d42000406a8800506a80000080a10094
:100b2000506a8800416a8000306a8000808f5000df
:100b300004003a00506a80000090a000506a8800cb
:100b40000500370011288000002020000080600090
:100b50000000e000e3ff32000080fa004f00be001a
:100b600000400600809fbe000000fa001800370019
:100b7000106a8000312880008140780001487800a8
:100b8000106a80000000e800106a8800116a800086
:100b9000c0dc2000808f500002003a00c0d8200046
:100ba000106a8800506a80000010a100506a880016
:100bb000116a8000206a8000808f500004003a0093
:100bc000506a80000000a000506a880004003700ce
:100bd00010288000610060000000e000e4ff3a009f
:100be0008560a9000080fa004f00be0000400600aa
:100bf000801f78000000fa0010288000620060006a
:100c00000000e000010032000225a9008c20a900ac
:100c10000080fa004f007800004006003600f8001f
:100c2000809fbe00829fbe00849fbe00869fbe0044
:100c30000000fa0030048000680060000000e0005e
:100c400004003200cd21070000012000c91907006f
:100c50008660a9000080fa004f03be004f02be006c
:100c60004f01be004f00be003600f90000400600f4
:100c70000040da000000fe000a00fa001100200027
:100c8000b1bf9f00c0bf9f006a805700620b070082
:100c90004fb897000080fa00000006000a00fa0032
:100ca00051002000b1bf9f00c0bf9f006a80570065
:100cb0005b0b07005fb897000080fa000000060099
:100cc000889fbe0080047800c07880000000e000ab
:100cd00004003a000e0007000084eb000000e00072
:100ce00008003500c87880000900e00005003200e7
:100cf00009004400060007000000e00001003d007c
:100d00000084eb00080078004f04be0000000600dd
:100d1000800078000100e00003003a00000020009d
:100d2000c0788800000005000080eb000200200071
:100d3000828f500002003e00c17888000000eb0066
:100d4000000006000600fa00000f78001107980066
:100d500022079800000000001128800000102000e9
:100d6000008060000000e000fbff32001e009000e9
:100d7000ae009000a61a07000080fa0000000600ee
:100d800000000500889fbe008a9fbe008c1f78006f
:100d90009b000700a200330003866c006450e10052
:100da0002e0032006420e100330032006150e10087
:100db0002f0032006120e1003100320085855500ae
:100dc000eb07b000090020000804200005003700f0
:100dd0000804440089844c000a00310006034300e3
:100de00087834b000001530081815b00f8ff3300d3
:100df0000203be000800a0000804440089844c00df
:100e0000f6ff3900c639dd008301730001003200ae
:100e1000130020008904d1000884d3000998a3009e
:100e2000050032000800a7000300a0008904d100db
:100e30000884d3008b05e8008904d1000884d3001e
:100e40000001eb000281d2003200070001f0a10096
:100e50000cf0a70001f0a0007a0037006420e10048
:100e60007c0032000801be000200be00f7ff370020
:100e70006120e100770032006000b800f3ff370026
:100e80000000200001f82700f0ff370014002000c8
:100e9000b7003700f4ff2f00b50037000001be0097
:100ea000420007000470a70003f0a10003f8a300ac
:100eb00013003a006509b100100032000900350046
:100ec0006928e1000200350001002800000005004b
:100ed00000004000818048008502e900fcff3a00e4
:100ee00000000600f88f4200050035008100d100a7
:100ef0000080d3008502e800fcff3a0000000600f5
:100f00008000eb00000005004f89de0082017800c0
:100f1000b200370081002000618055000b003d00c9
:100f20000b00200061fe2f000100e1001d003400d5
:100f300082817100610164008904d1000884d300ba
:100f40000000e800faff3a00710020006100640030
:100f500003007000020060000900320061044400d8
:100f6000e0844c000988a500050032008b05e800ec
:100f70006808e10002003a008904d1000884d30027
:100f8000f20f20000258e10005003d00c75ddd00c2
:100f9000f907b2008980750008007800000006009b
:100fa0000bf827008b00780000000500c70ade0060
:100fb000f107b200f50fb20008003200e1cf4200a5
:100fc000020032000170a00024000500810f7000b3
:100fd000010032000408050044000500810f700084
:100fe00002003a00140005008502e90000004000fc
:100ff00081c04800fcff3b000170a00024000500f8
:101000000004be00e9ff07000003be000405be00a7
:101010000200be00e5ff0700844f750000000600d7
:101020000200be006450e100050036006420e100cb
:10103000020036000968a30001003a000800be0063
:101040000160a0004f0678004f05be004f04be00af
:1010500000000600f0ff2f00f1ff2700f9ff370026
:10106000889fbe008a9fbe008c1f7800e4ff0700a7
:10107000ebff330003866c006450e1002400320073
:101080006420e100270032006150e10022003200bc
:101090006120e100210032008b854200eb07b100a6
:1010a0000134b800003ab8000804420089844a00bc
:1010b000013ab8000030b8008880400009014a00b9
:1010c0000400330000004000818048000201490014
:1010d0008b05e900c909dd008301700001003200c1
:1010e00013002000c814de004814dd004709de00ac
:1010f0001200b200c808de000884700085ff0700f7
:1011000001f0a1000cf0a70001f0a000cdff370016
:101110006120e100cfff32000801be000200be00e6
:10112000f7ff37006150e100fcff3a00c9ff3700cc
:101130006022b800060220000000d0008180d200aa
:101140000482d2008582d2000000a0000202520078
:1011500083825a00030031000202420083824a0067
:101160000000a1000603e900f3ff3a0000000600ba
:10117000889fbe008a9fbe00841f7800a0ff0700e2
:101180004f00780011003300f0ff2f00838f6c00b8
:1011900006003b00040565000a00a70008003700b0
:1011a00009f0a6001000200008003700820f54004c
:1011b000838f5c00030039001000200001003e0016
:1011c0000000200009f0a7000000ea004f05be0063
:1011d0004f04be000000e00000000600881f7800f9
:1011e000030478000300e00007003d0060001000e9
:1011f000e080180060011900e081190002003b0046
:1012000001f02d00030037000400070008f0a700dc
:1012100001f0a0004f04780000000600889fbe0087
:101220008a9fbe0000827000040271000482710077
:10123000260032000004be000200be006011b800ab
:101240006b092000950220000182cf000a003900be
:101250000541b1000082cf00070039000541b1000f
:101260000982cf00040039000541b1000882cf0097
:10127000010039000541b100054252001200320060
:101280000a003b0082817100610164008100d1008d
:101290000080d3008984d3000884d3008b05e80044
:1012a0000442e800f7ff3a00070037000804440052
:1012b00089844c0000004800818048008b05e900cb
:1012c0000442e900f9ff3a0012ff07004f05be0093
:1012d0004f04be00000006000900370030427800cd
:1012e000b1417800834f520004003200100020000a
:1012f000060031000080eb00000006000201e9005a
:101300000200e000f5ff3a000000eb0000000600dc
:101310008001780002003700b15978000201e9002d
:101320000200e000fcff3a000000060041df200060
:1013300033050700800078000080eb000100e0002a
:101340000400350041df2000a00020004900070014
:101350004f80de0000000600020037000304e000ba
:10136000060032000001780002007800b0417800e9
:1013700081cf5100f9ff3a00010037000001eb0076
:10138000020078000000060000017800b1417800fa
:10139000035978000304e000fcff3a000000060057
:1013a00080007800010178003104e000fdff3a0080
:1013b00000005100000006000c003700b04178002a
:1013c000b1cf510006003200100020009542780095
:1013d00094cf52000b0031000080eb0000000600ab
:1013e0000304e000060032000201e9000102780077
:1013f000800278000200e000f0ff3a0000000500e3
:101400000000eb0000000600889fbe008a9fbe001f
:101410008c1f7800800578000106780002057800ae
:101420000c007800deff0700000478000a00e000ee
:101430000b0032008a04e900090178008c00780072
:101440000b007800a9050700890f5400040039003b
:101450000a8545000040eb0070fd9f0009047800fc
:10146000080078004f0678004f05be004f04be000c
:1014700000000600889fbe008a1f78000004be009e
:10148000c900900069009000808f5000050039006d
:1014900009007800ae0507008080eb000000e00046
:1014a000160035000845780049009000085878007b
:1014b000c00498001900780000b8a30004003a00a6
:1014c00000a8a30007003200ea4f540005003a00cc
:1014d000090078008f0407008080eb000000e00026
:1014e00006003a0000c0200019006000020032002f
:1014f00049009000e00498008a80fb000100780019
:101500004f0578004f04be0000000600881f7800d9
:1015100002047800080178007dff07000800400001
:101520004f047800000006000000fa00881f7800d1
:1015300000047800ea8157003fb9970088007800de
:1015400060a82000070007000000e000020035004e
:101550008040eb00017478004f0478000080fa00ae
:10156000000006006200fa00889fbe008a1f780013
:101570000005780081047800020478008300780078
:1015800080f92f000f004000cd0707009a979f00b9
:10159000a9979f000000eb00b09f9f001885fb00fb
:1015a0008a04fb000a05ea004f55de0050022000c5
:1015b000808f54000d003200e10f55000b003a00ff
:1015c0000a017800880078002f9097009f9197007b
:1015d00003000100a0979f000000e0008e00320091
:1015e0003f9897000000e800b09f9f000a04440065
:1015f00050022000808f5400040032000900e000f7
:10160000e6ff3a003f989700840037000000eb00a7
:10161000909f9f00809f9f00f0979f00e0979f0002
:10162000d0979f00c0979f000700370021f020004f
:10163000010050000000400061ef200061007800d0
:10164000df98970001007000d09f9f008804780009
:1016500009047800384578008a00fb0020f020005b
:101660003dff07000000e000f0ff3a00a1c2b30018
:10167000814f55000e003a00cf8897000180e900a5
:10168000c08f9f0010007800c09f9f000000e00006
:1016900005003d000000ea00c09f9f005f98970092
:1016a0000020a000d09f9f000904e8000f00370031
:1016b000c09f9f000000eb0005003700f2ff2700ed
:1016c000820f5000020032006a01b900028040001f
:1016d0000904780088047800b900fb000103b10018
:1016e000e98f5000f5ff3600c09f9f00e0c2b300b5
:1016f000984f1000020032000080eb001900370004
:10170000a0c2b300d84f100007003a00cf8897005e
:101710000180e900c08f9f0010007800a09f9f000b
:101720000804e800100037000000eb00a09f9f00b5
:101730008800780005003700f3ff2700830f500072
:10174000020032006a02b90004004100010478007e
:10175000880078003101fb000203b100e90f51005d
:10176000f5ff3600a09f9f00984478008900fb0099
:10177000e0ee2000f8fe07000000e000020032006a
:101780000804e800010037008044eb00c97f9f0097
:1017900080c6b30080cf540004003a0098cf1400f4
:1017a0000a003a006640500006003700c0c6b30089
:1017b00080cf540005003a0098cf140003003a008f
:1017c00065404000c07f9f000804e8001801fb004e
:1017d000e3fb2f008f81410081f92f008f804000b3
:1017e000a0f92f000f004000100007000000e000eb
:1017f00009003a00e1fb2f008f804000a0f92f0084
:101800000f004000720607000000e00002003500f3
:101810000804e80061ff37000080eb004f05780006
:101820004f04be000080fa0000000600889fbe0042
:101830008a1f78000004780082447800030578004d
:1018400070c6b30080cf540021003c0000c0e90006
:1018500080cf5400d5003d007240500080cf54002e
:101860003c0132000d003c006c40500080cf540021
:101870004f013c0000c0e90080cf5400cb003d0088
:1018800050c2b30080cf5400460132007c4040007b
:1018900080cf540046013a00c400370010c6b300a0
:1018a00080cf5400c100320004003c006940500069
:1018b00080cf54003e013a006900370030c6b300c3
:1018c00080cf5400180032000040e80009003700c3
:1018d00000c7b30080cf54001001320008003c0064
:1018e00000c0e90080cf5400d90032005c003c0009
:1018f0006540500080cf54002d013a000f003700a2
:1019000050c7b30080cf5400550032006340400000
:1019100080cf5400520032006540500080cf540008
:1019200023013a000b0137001181e9008208780099
:10193000780090001275780023013700286090002d
:10194000c2c6b300824f500007003a001101780070
:1019500064005100800878001000be004f89de004e
:10196000820178001400370012c7b300824f500084
:1019700003003a00110278006800520005003700a9
:10198000a2c6b300824f500006003a0091027800d0
:1019900068805200800878005001be004000be0000
:1019a000050037001180e9008008780010007800f9
:1019b000cf80de006109b900009cbe000294be0029
:1019c0002862900085c6b300854f52000d0032009a
:1019d00025c6b300854f520004003a000000fb000a
:1019e000cf80de006109b9000800370045c7b300a9
:1019f000854f520003003200e6c24200854f52007c
:101a000004003a00cf80de006109b900009cbe00ee
:101a10000294be003802be002803be007800900089
:101a2000d1c2b300e00f5200e08f5a00e00f5b001c
:101a3000e08f5b0008003500881090000118a300bb
:101a400002003200b1c2b300030037000108a30056
:101a50005100320001c2b300017578004c0037001c
:101a600028609000c2c6b300824f500008003a00c0
:101a70001103780064005300800878001002be0053
:101a80006033b8000400be000601be001400370039
:101a900012c7b300824f500003003a009102780051
:101aa0006880520005003700a2c6b300824f500084
:101ab00006003a001103780068005300800878009f
:101ac0005001be004000be00050037001180e90053
:101ad00080087800100078008000eb006011b800ea
:101ae000009cbe000294be002862900085c6b30030
:101af000854f52000d00320025c6b300854f5200bd
:101b000004003a000080fb008000eb006011b80088
:101b10000800370045c7b300854f5200030032006c
:101b2000e6c24200854f520004003a008000eb00fc
:101b30006011b800009cbe000294be000810900026
:101b40000038a300140032003800be002801be0097
:101b5000e00f5000e08f5800e00f5900e08f59006f
:101b60000d00320080c7b30080cf54000300320064
:101b700080c5b30080cf540007003a007800900081
:101b800001c3b300017578000000e8000975780012
:101b90000000e800700498007800900000054500ff
:101ba0006a04980089407800670037002861900037
:101bb000c0c4b300804f510006003a009103780082
:101bc00068805300800878005001be004000be00cd
:101bd000050037001101780064005100800878008a
:101be0001000be0048080700009cbe000294be0022
:101bf000b8009000780090000100e00002003d0075
:101c0000d1c2b30008003700881090000118a3006b
:101c100002003200b1c2b300030037000108a30084
:101c20000400320001c2b300017578000000e80032
:101c30007004980078009000000545006a04980040
:101c40008900fb000800780065000700600037008d
:101c500028619000c3c6b3001180e900834f510092
:101c6000220032000a003c00e4c15100834f5100c1
:101c70002500320083c1e800834f51001300320079
:101c8000e8c15100834f51001e003a000a0037009e
:101c900043c7b300834f51001b003200e6c141002f
:101ca000834f510018003200e9c15100834f5100a9
:101cb00014003a0005003700800878001000780012
:101cc000485c9000084878004100370080087800a0
:101cd00010007800680a9000cfa2de00612bb900e6
:101ce0000498be000690be003900370080087800d6
:101cf0001000780068099000cf91de000288be00d5
:101d0000330037001180e900800878001000780067
:101d1000680c9000080878002d0037001180e90059
:101d20008008780010007800cf80de006109b900db
:101d3000009cbe000294be007800900000054500a3
:101d40006a04980081c7b30008007800f103070017
:101d50001f0037001180e900800878001005780026
:101d60006a049800d80c90000900e00004003d00cf
:101d70000a0078008afd0700800478000700370019
:101d8000090178008000eb000a0078004d0307008d
:101d90000000e000010032008a045000190c980095
:101da0000b003700780090000975780006003700b6
:101db00078009000000545000904e00001003a00a9
:101dc00059c2b300094d78000000e8007004980083
:101dd0000000eb004f0578004f04be000000060035
:101de0002f04b000889fbe008a9fbe008c9fbe005b
:101df0008e1f78000007780081f79f003e04be0028
:101e00002e05be005e0890000000e00002003d00cc
:101e100060002000500f98008e00780020fb2f00fb
:101e20000f00400091030700e20f50000a003a0043
:101e300030002000100f9800b1c9b3000ff09700d8
:101e40008140400080e52000e1cf50000d003e00c1
:101e500040e520000b0037000000e0000f003400d8
:101e600030002000100f9800b1c9b3000ff19700a7
:101e70008140410000e62000e1cf500001003e001b
:101e8000c0e52000ee009000b0487800b06878000f
:101e90001040780090409800f30037000000e00008
:101ea00005003a0022fb2f000f01410000197800c5
:101eb0008001eb00e70037006022b8006033b80013
:101ec0000800be000a01be00d70607000000e000bf
:101ed00001003d000bf0a200705927009f98970069
:101ee0000088b900026a28001300200032070700aa
:101ef000640650009c9f9f0013003b006306160081
:101f0000c0ff2f00000666008c01ea00939f9f002f
:101f10004de620000800be000a01be0007003700a1
:101f20000c08a300030032003d02be002d03be00da
:101f3000c30707000c86d100e88646000c00e000cd
:101f4000f7ff3c00180037000c00e00018003200da
:101f5000c0ff2f00000666009c9f9f004de62000fa
:101f60006000b8000200200003ff230007003700d4
:101f70000c08a300030032003d02be002d03be008a
:101f8000af0707000c86d100e88646000c00e00091
:101f9000f7ff3c000002be000203be000800be00c6
:101fa0000a01be00aa0607000004be000205be002a
:101fb000de08900060c6b3000ff29700804f520019
:101fc000040032006000200062c4b300824f52005f
:101fd00002003a009f9a97006a8042008100400008
:101fe000f1b79f0001037800f30f530002003400a3
:101ff00037012000f7b79f0000c3b300c0779f00f0
:1020000056fb2f000f0343000e007800a0b79f007f
:10201000060778003d0037000800be000a01be0038
:10202000580707000006be007fb197006801510005
:10203000f2b79f004240a9000c0034007d07070062
:102040000002be000203be000800be000a01be007e
:10205000f10707006022b80046782d0077192400a8
:10206000770707000004be000205be00e800470035
:102070008e0020000802be000a03be00b4b79f0015
:10208000c5b79f00d6b79f00e7b79f000c01be0001
:10209000010478000c003700a40020000500200097
:1020a000c0fd2f000f004000710207006fa89700cd
:1020b000ffa897000fb197009fb1970005c3b30029
:1020c000056441000001be00e00f5100e08f59009f
:1020d000030034000e07e900e10f4700eeff3a006d
:1020e000880078003fb49700cfb497005fb59700a1
:1020f000efb597000200370000c3b300806078009e
:102100000e07e900fcff3b00688740007fb39700a3
:102110000600e000070034006022b8006033b80019
:102120000800be000a01be00440607000000e000ef
:10213000b9ff3c000e0378002fb7970051fb2f002a
:102140008f804000010353009f9b970067804300ee
:10215000909f9f00020037000603e9000000e9009d
:10216000010178008200780003c3b300b1cf1100f1
:10217000f9ff3200909f9f00de09900061c6b30016
:102180000ff29700814f52000300320061c4b30088
:10219000814f520002003a000000e8000a003700b8
:1021a0001000200051c6b3008ff2970081cf52007b
:1021b000050032000540780050c4b2000080fb00ea
:1021c0000000e9004f00de0083014000868f5100cf
:1021d00001003400860178000300e0001d00350096
:1021e00000c3b300868f510006003d0062c2790033
:1021f0006940400041c3b300814f520001003c00e0
:10220000694050008300e90081004100010037006f
:10221000840178000302e90001037800a1427800fc
:1022200080cf5200faff320091c3b300814f5000bb
:1022300001003a00054be8000400e00005003d0005
:102240000201e9008301e8001f9b97000603e800f4
:10225000969f9f008ff397008700fb001f9a9700bf
:102260000e007800060007004f0778004f06be00fa
:102270004f05be004f04be002f04b1000000060051
:10228000f0874700889fbe008a9fbe008c9fbe00db
:102290008e1f780000047800814478000205be009b
:1022a000040678000b00e00002003c001b00200048
:1022b0002af1200060c6b30080cf54000e00320027
:1022c00060c4b30080cf54000b00320070c6b3006e
:1022d00080cf54000300320070c4b30080cf54009c
:1022e00081003a00e40f46007f0035005808900056
:1022f000800f56007c003d000c06e80060c6b3006d
:1023000080cf54001000320060c4b30080cf54006e
:102310000d003200081090000038a30004003a00bd
:1023200058089000808f550001003d005b0c98001c
:10233000580890000c005000500c980002003b0020
:102340000000eb00500c980018089000e800900086
:102350000c00e00026003c0002c3b300827078004d
:102360000000e800100c9800d80890000100e00080
:1023700003003c00881090000138a30005003200e3
:10238000e8009000e2c2b300827078000000e8002c
:10239000100c9800580890008c00ea00810f500043
:1023a00001003d000006ea008c00ea00210c9800c4
:1023b000000646005c0c98008b0f560001003400ac
:1023c0000b0678003c0c9800e8009000180890007c
:1023d000008040000c0178008a007800ccfb0700e8
:1023e000580890000c0650004c0c980090003700e4
:1023f0008c8f550018003d00008040000b017800d4
:102400008a007800c2fb0700180890000080450091
:10241000100c98008b0556002b0c9800d8089000e3
:102420000100e00003003c00881090000138a30088
:1024300006003200e8009000e2c2b300827078002b
:10244000380890000000e800300c98005808900010
:10245000400c980076003700008040000c017800a6
:102460008a007800aafb07001808900000004600c8
:10247000100c98008c855500d80890000100e000f1
:1024800003003c00881090000138a30005003200d2
:10249000e8009000e2c2b300827078000000e8001b
:1024a000100c980058089000808f550001003400ef
:1024b00080057800e8009000180890000080400037
:1024c0008c0045000b01780091fb07001808900074
:1024d0000b004000100c9800580890008b0550002d
:1024e0002b0c98005200370018089000e80090006c
:1024f0009a7078000000e800100c9800d80890004e
:102500000100e00003003c00881090000138a300a7
:1025100005003200e8009000e2c2b300827078004b
:102520000000e800100c9800580890000000e0003f
:10253000100034008b05e900808f55000100340045
:1025400080057800e80090001808900000804000a6
:102550008a00e8000b0178006dfb07001808900066
:102560000b004000100c9800580890008b0550009c
:102570002b0c9800e80090001808900000804000a4
:10258000095878000007e8000c00e000040035005e
:10259000b1c2b300014878008e047800040037000f
:1025a000d1c2b300014878008e0478000c06ea001e
:1025b0007d8557008006eb0009003700a20020004f
:1025c0008c00780072805700470007007fb09700aa
:1025d0008fb89700016d7800000678008d06e8003e
:1025e0000c00e000f5ff3c000d00e00009003a009f
:1025f0008e04780000c3b300805c780005003700cb
:102600008d06e900fc80570061c07e0002c3b30064
:10261000825c40000d00e000f9ff3c00e800900003
:10262000180890000080400080845400390c980005
:102630000810900074006000f00f50000e003a0087
:10264000980890007800900000804000a808900052
:1026500001004000b808900001004000c808900048
:1026600001004000f8089000810f500002003d007a
:1026700000805000000c98004f0778004f06be0005
:102680004f05be004f04be000f01b1000000060060
:10269000889fbe0000047800010078008204780062
:1026a0008801780009017800110020009c000700d3
:1026b000890f5000010032000004eb000800780090
:1026c0004f04be00000006000000fa00e881570039
:1026d0004fb9970041df200080342100a1fb0700a3
:1026e0000080fa00000006008002780001037800f4
:1026f000110009000203d80080017800830a7800e5
:102700000299b90002015300920298000500780076
:1027100000000600889fbe008a1f78000004780031
:102720000800e0000d003a0028e420007005440095
:102730008004eb00580078000000e0000400320044
:10274000f4ff07000000e00001003d008084eb0082
:102750008a0f5400f7ff3a002500370000002200de
:10276000180060008004eb0021003200a8049000f3
:102770000f00370009015100384090000000fb00b5
:10278000890078006ff907000000e00007003c00b6
:10279000280090004004980060049800500c9800b5
:1027a0001890a0008084eb00110037008084440062
:1027b00048019000828f5400eeff390028009000fd
:1027c000400498009800780002c020000281600058
:1027d00001003a003800900001e8a3000200320036
:1027e0006004980001003700500c98008004eb0052
:1027f000090078004f0578004f04be000000060075
:10280000889fbe008a9fbe00800478000104780083
:102810002c003700c800900068009000808f5000a6
:102820000400390008007800c90007000000e0003b
:102830003700350000402000180060000900320019
:10284000a100200009007800b7000700800578008b
:102850000b00e00003003200618514000a8545008a
:102860000400370009007800cdfa07000005780061
:102870008005eb0048009000e80090008080500048
:102880008a8f500002003100010578008005eb00be
:102890000a017800890078009dfa0700480090003e
:1028a0000a004000400498000b00e00004003200e1
:1028b0000800780097ff07000000e00014003a00cd
:1028c0008a8444001904e000d2ff3a00008020000e
:1028d0001800600006003200080078008dff070035
:1028e000800078000080eb000100e00009003a0061
:1028f00001c02000988060000000eb00050032005d
:1029000048009000600498000000eb0001003700d0
:102910000080eb004f05be004f04be000000060023
:10292000889fbe008a9fbe008c9fbe008e1f7800cd
:102930000006780001047800020078008304780023
:102940000881b900020778000200e000420032006e
:102950000800e0004100320082057800c9009000c4
:1029600069009000808f5000040039000900780051
:10297000770007000000e00029003500004020003b
:10298000190060000a0032000b017800a10020004d
:102990000c0078004b000700800678000d00e00076
:1029a00006003200610516000a8546000400370063
:1029b0000b0578008006eb00010037000b0578005e
:1029c00049009000e9009000808050008a8f5000fc
:1029d00002003100010578008006eb000a01780052
:1029e0008c0078004afa07008a855500490090005b
:1029f0000a004000c00498000d00e000040032000e
:102a00000900780043ff07000000e00004003a00de
:102a10000b00e000020032000a064600cfff37003c
:102a200000802000190060000200320009007800d8
:102a300038ff070000c020001900600002003200cb
:102a400049009000e00498008b0557001100090030
:102a50008885d800010037000000eb004f077800a0
:102a60004f06be004f05be004f04be00000006002a
:102a7000881f78008a9fbe008c9fbe0000047800eb
:102a80000205be000406be000401be000a00be002e
:102a900049040700008cbe000c01be00630507005e
:102aa0000005550081855d002a0498003b049800cc
:102ab000080078004f06be004f05be004f047800a6
:102ac0000000060003003700b0cf10000500320000
:102ad0000201e900800178000200e000faff3a00fc
:102ae0000000050003007800000006008001780067
:102af00002003700845978000201e9000200e0007a
:102b000006003200314278000404e000f9ff3a0088
:102b1000020037008059eb000201e9000200e000ea
:102b2000fcff3a00000006000001eb000002780004
:102b3000b041780081cf510001003a0004017800d3
:102b40000304e000f9ff3a000200780000000600ec
:102b5000889fbe008a1f780000047800c80090009b
:102b6000680190000000eb00828f50003c003900ab
:102b7000180078002200290002016000e20f5100d5
:102b800007003200012024000000e00001003d00a9
:102b900001202000008c70000080eb003000370026
:102ba0000200260002006000820f500009003a0077
:102bb00038009000808f500006003900080078002f
:102bc000d4fe0700800078000080eb000100e000e8
:102bd00023003a001805780000c0200000006500be
:102be00018003a00a804900060022000080040008d
:102bf000808f540013003a00002020005203070089
:102c0000200498000000e00005003a002904980024
:102c1000490498008904e800390498000800370046
:102c20000a60a0000a0c78004004980001202000ef
:102c30008080400031049800400c9800500c9800af
:102c400023020700280090005004980038009000ec
:102c50006004980000002600180c70000000eb00d3
:102c60004f0578004f04be0000000600889fbe009c
:102c700000047800e68440001900d0004500de0022
:102c8000f27f2000820f500010003a00000ceb0091
:102c9000990478006f816400200020001b003a0036
:102ca000210190000200e00018003a00110190009c
:102cb0000200e00015003a00100020001100e000c2
:102cc0001200320020002000100037000000e00059
:102cd00004003a00010078006a0207000000e000ea
:102ce00008003c00f20028001901610001fe2300e9
:102cf000810c710021c02f00010c40000080eb000e
:102d000002003700000ceb000000eb004f04be0097
:102d100000000600fc874700889fbe008a9fbe0017
:102d20008c9fbe008e1f78000006780080c5b3001f
:102d300080cf50000a0032007740400080cf500022
:102d40000a0032006940400080cf50000b00320082
:102d5000d0eb200080bf9f00ae0020000a003700ab
:102d6000c2ea200082bf9f0006003700d3eb20009c
:102d700083bf9f008e00200003003700d4eb2000ab
:102d800084bf9f000e0120003c02be002c03be0049
:102d90000605be000404be0040c6b30080cf50004c
:102da000030032006540400080cf50000b003a0025
:102db000e00f5200e08f5a00e00f5b00e08f5b00f5
:102dc00006003d006000b8006011b8000404500027
:102dd000858458000605590087855900e80f57007b
:102de0000400320040002000f00f570038003a0085
:102df0000100370030002000e00f5400e08f5c003d
:102e0000e00f5d00e08f5d0004003a00dc089000f8
:102e10008d0120000100e000060032008e00e90074
:102e2000888060008fba9700e5c07800f1ef9f00be
:102e30007d012000800078008100e900050033005a
:102e40008b05d1000a85d3008984d3000884d30080
:102e5000f9ff3700089ebe000a96be001200370038
:102e60008d06e9008e00e900848060000fb99700ac
:102e7000e2c1780082fd2f000f01410003f17e00c6
:102e8000800078008100e900050033008783d100cd
:102e90000683d3008582d3000482d300f9ff370074
:102ea000049ebe000696be003c02be002c03be007f
:102eb000e00f5200e08f5a00e00f5b00e08f5b00f4
:102ec0008b0034000d00e000e5ff3c008800370077
:102ed0002c60900081c6b300814f50000b0032007f
:102ee00006003c000004e00008003200e6c050008c
:102ef000814f50004e003a0004003700c1c6b300b5
:102f0000814f50004a003a00210037000800e000dd
:102f100004003a005c0890008d0120000000e000f1
:102f200006003200110009000e84d8000fb9970086
:102f3000e2c07800f1ef9f007d0120001100090040
:102f40000e84d8000a003700110009000e04d800d2
:102f50008d06e9000e81b900020454008fb8970075
:102f600061417c0081fd2f008f80400082f07e0057
:102f7000000478000800e000020032000d00e000cc
:102f8000f1ff3c00cfc4de00614db90025003700e1
:102f9000e00f5400e08f5c0004003a005c089000f1
:102fa0008d0120000000e000070032006171b900cf
:102fb0000800be001a0407008fb99700e3417800ab
:102fc000f3ef9f007d0120006171b9000800be0091
:102fd00057f807000b0037006171b9000800be0008
:102fe000f50207008d06e90000f1b9000204540063
:102ff0000fba9700e4427c0084fd2f000f024200cc
:1030000005f27e000004be00e00f5000e08f580083
:10301000020032000d00e000efff3c004fcdde006b
:103020008a057800089ebe000a96be003000370070
:10303000e00f5400e08f5c00e00f5d00e08f5d006a
:1030400004003a005c0890008d0120000000e000c0
:10305000090032006172b900612bb9000800be009e
:103060000a01be00970407000fba97006442780077
:10307000f4ef9f007d0120006172b900612bb9005f
:103080000800be000a01be00870407000d003700db
:103090006172b900612bb9000800be000a01be00d0
:1030a0008c0407008d06e90000f2b9000404540006
:1030b0008fba970065427c0085fd2f008f82420009
:1030c00084f27e00009ebe000296be003c04be005c
:1030d0002c05be00e00f5400e08f5c00e00f5d00a7
:1030e000e08f5d00020034000d00e000e8ff3c00ce
:1030f000e80f570010003a000c1090000038a300b1
:103100000d003200f78f560006003e0085fd2f00af
:103110008f824200e5c07e0000c3b30080cf500024
:10312000050032008d06e90002c3b30081fd2f00c7
:103130008f80400082f07e0078811600120e980089
:103140006c00900083fd2f008f8141008d80410035
:103150006ff807001c089000dc089000810f5000f9
:1031600006003d0000805000000e98000c109000fa
:103170000040a100001698000f0037000100e00099
:103180000d003d008c109000f4806000f08f500026
:1031900009003a007c099000fc0090008100510079
:1031a0000c09900082805000008050004240a9002d
:1031b00001003400000e98004f0778004f06be0053
:1031c0004f05be004f04be00cf01b1000000060055
:1031d0000400fa00889fbe008a9fbe008c1f780002
:1031e0000004780001067800f80d90007800900047
:1031f00080855500080890008085550018089000cb
:10320000808555002808900080855500380890007a
:1032100080855500480890008085550000022200f6
:1032200090bf9f0000032300a0bf9f0008109000e4
:103230000028a30015003a000b00e0001300340042
:103240000b0578008a047800e20f55000100360073
:1032500029002000c801900009017800ee80570085
:103260005800900003000100500498000000e000a6
:103270008c0032006808900009004000600c980043
:10328000090555004240a900eeff3c00780190007e
:103290000200e0000c003400c80190008c007800af
:1032a0005800900003000100500498008080eb005b
:1032b0000000e0007c003200e808900078009000f8
:1032c00000804000600c9800880c90000900e0002d
:1032d0001100340009057800e28f54000100360027
:1032e0002a002000c80190000a017800ec805700f5
:1032f0005800900003000100500498000000e00016
:1033000068003200680890000a004000600c9800d5
:103310008a845400edff3700180990000200e00095
:103320000c003400c8019000e800900058009000a4
:1033300003000100500498008080eb000000e000d2
:1033400059003200e8089000180890000080400002
:10335000600c9800a80c90000900e00011003400f7
:1033600009057800e28f5400010036002a00200091
:10337000c80190000a017800ec80570058009000c6
:1033800003000100500498000000e00045003200f6
:10339000680890000a004000600c98008a8454007d
:1033a000edff3700380990000200e0000e00340005
:1033b000e80090001808900080804000c80190004c
:1033c0005800900003000100500498008080eb003a
:1033d0000000e00034003200e80890003808900057
:1033e00000804000600c9800c80c90000900e000cc
:1033f0001100340009057800e28f54000100360006
:103400002a002000c80190000a017800ec805700d3
:103410005800900003000100500498000000e000f4
:1034200020003200680890000a004000600c9800fc
:103430008a845400edff3700081090008000eb00f4
:103440000028a300180032000b00e0001600340032
:103450008b04780009057800e28f540001003600e3
:103460002a002000c80190000a017800ee80570071
:103470005800900003000100500498000000e00094
:1034800008003200680890000a004000600c9800b4
:103490008a8454004240a900eeff3c008000eb000b
:1034a000010037008080eb00010078004f067800b3
:1034b0004f05be004f04be000080fa000000060069
:1034c0000108780000000600a0b02100610037006c
:1034d000881f780048f120001804e00003003a003b
:1034e000f9ff070020c0b300004c78004f047800bb
:1034f00000000600889fbe000004780008007800e5
:1035000084fc07008004780000042000180060009c
:103510000200320028009000a60007000000eb0027
:1035200020049800384090000004e00005003500b9
:103530000000fb00d0f507000000e00001003200b1
:103540008084eb00181090000000e00008003200ba
:10355000d2f507000000e000010032008084eb009b
:1035600018109000930007000000eb001014980062
:103570000008200018006000150032000001eb0078
:103580006000b80043e420000202d00063027a0029
:10359000880f520005003a0000004000818048007a
:1035a000008041000008eb00060037006100400089
:1035b000e08048000201e800e80f5000e08f58006a
:1035c000f0ff3a00080078007a0007000e0037008c
:1035d000000c780000c0eb0030449800600220002e
:1035e000080040002004980040049800500498000f
:1035f000400c980060049800500c980070049800eb
:1036000076004400000c9800090078004f04be00ca
:1036100000000600881f78000004eb006140b8003d
:10362000e2ff2f00f3ff2f008002070022e52000b9
:10363000620078000000e00001003200adff0700ea
:103640000804e800e80f5400f4ff3a004f04780043
:1036500000000600010020000100e0000800320028
:10366000010080000100e000050032008100e90057
:10367000010088008100d0000200800000b17800c5
:1036800000000600e6004000110178000500280057
:10369000850261006f01610082087800020032003b
:1036a0001200200011003700a0019000120020003d
:1036b0000300e0000d003a00900190000300e000dc
:1036c0000a003a001000e00008003a003600370017
:1036d000640340009608780080017800530b78005e
:1036e00090097800040878007001510011027800f8
:1036f0000400e000f6ff32001300370064024000cf
:10370000140378004f33de00838141008308730087
:1037100080017800d3037800cf3bde0014037800eb
:1037200006034300068a7300130278000402420075
:10373000100378004f33de00860972009001780094
:10374000038841000201e90091017800ef8f5100e8
:10375000eaff36001000370080017800530378003c
:103760004f33dd001002d1000408730064024000f2
:1037700094037800cf3bdd001303d10086897300ea
:10378000110378004f33dd009401d100030a730068
:103790009108d1000201e80091017800ff8f5100eb
:1037a000edff3e00ef886100918872000200780012
:1037b000000006000000e0002f003200c001780089
:1037c000e38f51002c0036000308a3002a003a00c2
:1037d000717880000100e00002003200810f50008b
:1037e000040031001100980070788800160037003e
:1037f00082007800110190000200e0000200320017
:10380000800f5100faff39001102780084824000d5
:10381000850f500018003900808f520003003a00d5
:103820008308420001007800070037000200e00032
:103830000300320083014000830f51000e00390065
:103840001200980090009800900090000100e000a5
:103850000900320010014000828f500006003a003b
:10386000c2f020000009eb001001780011084100af
:10387000910090001100980000000600889fbe0093
:1038800000047800617880000100e000020032004e
:10389000010078000d00370071788000e0f0200012
:1038a00004003700910f5400250036000180e80025
:1038b000910090000100e000faff3a00100037008c
:1038c000920f54001e0036000280e80010017800bc
:1038d0000200e000faff3a001101780071788000e0
:1038e000e0f0200004003700910f5400140036006f
:1038f0000180e80091009000828f5000faff3a00aa
:10390000b9788000888f5400010031008804780065
:1039100009007800360007000000e00004003a00cb
:10392000888f5400050032008904d100f5ff37006c
:10393000091878009fff0700d2ff37000000eb0056
:103940004f04be0000000600881f7800630440009a
:103950000800a1008000eb00800f54002100360019
:10396000e30f540001003e004800200008007800ea
:10397000c2ff07008000eb000000e00019003200e9
:10398000900078009101780064815100880f510007
:103990000300310011019000020878000700370091
:1039a00008814000020878009101900013019800fe
:1039b00010017800110914008808780010017800bf
:1039c0000000eb000200e0000400320092019000d1
:1039d0000300e000010032000280e8006078880007
:1039e0008180e800010078004f04780000000600a4
:1039f000800078000000eb000100e00005003400ca
:103a000001007800aef40700e10f400001003a0029
:103a10000000eb000000060000c0da000000060015
:103a200000c0da00000006008f1fd1000603070067
:103a30008f87e9000000e00000000600809feb0097
:103a4000010307008f87e9000000e0000000060086
:103a50002800fa00889fbe008a9fbe008c9fbe008f
:103a600003866b008f0007006400e1004400320011
:103a70006408e1004a0032006100e10046003200c3
:103a80006108e10049003200ec0647006000b80020
:103a90003d02be003d03be00f48657006011b80031
:103aa0003d04be003d05be007d0320000b00370035
:103ab0000000a0008d06e90013003200040242005d
:103ac00085824a0006034b0087834b0000004000bc
:103ad00081804800020149008381490008025200a8
:103ae00089825a000a035b008b835b00f0ff3b0076
:103af0000802420089824a000a034b008b834b0074
:103b00008d06e900edff3a00848272008682720021
:103b1000f707b20087827200010032001500200012
:103b20001e0490003e0b900006035400e63fb000d8
:103b30000368a300070032000000a7000500a000f2
:103b40008301d1000281d3008180d3000080d300a3
:103b50000603e8008301d1000281d3008180d300f5
:103b60000080d3000002eb000482d2002100070095
:103b700003f0a1000cf0a70003f0a0005d003700e7
:103b8000640247006408e100570032003400be00c0
:103b90003401be00f6ff37006108e1005200320038
:103ba0006011b8006000b800f1ff370003ff270084
:103bb00002002000fbff3700839f68000100e00047
:103bc00002003d0060001000e08018000300e000eb
:103bd00002003d0060011100e081190054f507006a
:103be0004f00e00002003b0060001000e080180081
:103bf00000000600180020005700200008045300b1
:103c00000d003d000600200097fc2f000740e1005a
:103c10001e00340084827200610260008301d100c2
:103c20000281d3008180d3000080d3000804e80023
:103c3000f8ff3a00470020006104600005047400aa
:103c4000040464000d00320061004000e080480080
:103c500060014900e081490003b8a5000700320077
:103c60000603e8006538e10004003a008301d10052
:103c70000281d3008180d3000080d300f87f200030
:103c80000830e10003003500080378006000b80048
:103c90006011b8004433dd00f300b200830173000b
:103ca00000000600680447000294be000094be00b5
:103cb000fc0447008694be008494be00090078008e
:103cc000aa02070008007800a802070099007800ff
:103cd000814f70000b003b000800be00830207000c
:103ce0004f00b10003003700f3ff2700f2ff2f0061
:103cf0006110b9004f06be004f05be004f04be0064
:103d00000080fa000000060081037800a7f4070095
:103d10000001be006000b8000478a30013003a0060
:103d20006220e10015003e000d0039008301d10042
:103d30000281d3008180d3008301d1000281d300ae
:103d40008180d3008301d1000281d3008180d30020
:103d50000538b000c42add00f300b2008381720090
:103d600007f0a70003f0a00000000600f3ff270003
:103d7000f2ff2f006110b900fbff370003ff27009f
:103d8000f7ff37001400fa00889fbe008a9fbe002c
:103d90008c9fbe000004be000205be006800470004
:103da0000a90be000890be00700207000070a700d5
:103db0000bf0a100304320009e0290008082520050
:103dc000b0fe2f000028e10011003d00b0fc2f00e4
:103dd0000028e100150034001e0990008e089000b4
:103de0007e0090000501b0000201d1008180d30067
:103df0000080d3008502e800fbff3a000b00e000e2
:103e0000bcff3b0060001000e0801800b9ff3700e5
:103e1000f0ff2f00f1ff27000b00e000b5ff3b0093
:103e20000100280000002000b2ff37006000b80049
:103e3000b0ff37004f89de00820178007202370040
:103e40002800fa00889fbe008a9fbe008c9fbe009b
:103e500003866b0093ff07000028a30064003a006c
:103e60000128a30067003a000008a30062003a009e
:103e70000108a30065003a001e009000be089000f3
:103e800081064000ed3fb100f4805700ee01900044
:103e9000111ab8008e099000311bb8009e099000dd
:103ea000311cb800511db800f485570046000700ca
:103eb000fe0190003a0007008b85e8003e000700f5
:103ec0008e09900040000700ee01900034000700ca
:103ed0008b85e800380007008e099000400007003d
:103ee0009e0990001b18b800890440000a8548000c
:103ef000fe019000340007008b85e80038000700c1
:103f0000ee019000300007008e0990001b18b800e9
:103f1000890440000a8548000a98a30008003a0076
:103f20000402420085824a0006034b0087834b004f
:103f300008044c0089844c000a054d008d06e900f8
:103f400084827200850273004c3add0085027200a3
:103f50000100320015002000443ade001400b200d7
:103f60004538de00cb45dd000b007000c540de00ab
:103f7000cb4ddd008b8070004549de00cb55dd0068
:103f80000b017100c551de000d03780019ff070019
:103f900003f0a1000cf0a70003f0a00055ff3700cc
:103fa0001b18b8008502400006834800e0834b00e0
:103fb00060044c00070037001b18b80006034000df
:103fc00087834800faff37001b18b80087034000ba
:103fd00008844800e0844c0060054d0000000600a5
:103fe0001b18b8000804400089844800faff370015
:103ff0000108a3003cff3a005800be005801be0073
:10400000e3ff37000008a30037ff3a0009047800f7
:10401000f9ff37000000000007f0a2000c01370094
:1040200043f407000400be0000000600020ab900c5
:10403000001bb9000200b80081004200810043006b
:1040400000000600889fbe008a9fbe003004420028
:10405000b0844a0030054b0090854b006000b100f1
:104060000898be000a90be000440e10005c8e100c7
:1040700006d0e10007d8e1000200310068004000ee
:104080001008e8004f05be004f04be000000060007
:10409000889fbe008a9fbe003004be002005be007f
:1040a0000418540005985c0006185d0007985d0030
:1040b000110020000440e10005c8e10006d0e10045
:1040c00007d8e100010039008000eb0010881000e3
:1040d0004f05be004f04be00000006001200fa00ab
:1040e000889fbe008a9fbe008c9fbe00e0b79f00e5
:1040f000f1b79f0082bf9f0093bf9f000605be00df
:104100000404be000000eb00d0b79f00c0b79f00c2
:10411000b0b79f00a0b79f0090b79f000006eb00cc
:104120005fb19700cfb09700820141003fb0970088
:104130000200e00004003d00370007007e805700c9
:10414000c0ff070003003700330007007e805700e0
:10415000cfff0700dfb697000d00e0000c00350030
:104160006fb29700ffb297000fbb97009fbb9700fd
:1041700010002000010020006011b8000002720051
:104180008182720002037300838373001b000700a7
:104190000c06e80001042000810f5600e0ff3a0001
:1041a0000d00e00004003d000802be000a03be004e
:1041b0007e805700a3ff07005fa897000000e00083
:1041c00005003a001fb29700afb297003fb39700c7
:1041d000cfb39700090007006fb09700ffb09700ba
:1041e0000fb997009fb997004f06be004f05be005c
:1041f0004f04be000080fa00000006000100070026
:1042000000000600a4b79f00b5b79f00c6b79f0087
:10421000d7b79f00000006004f09de0082817100c1
:10422000b3b79f004f01de008180400082807000a4
:10423000a1b79f008fb097004f09de00000040003b
:104240000200700090b79f007fa897004f01de002a
:10425000818040008280700081b79f000d000700c0
:104260004f3ade000000400004007000f0af9f00f5
:10427000080007000402420085824a0006034b0042
:1042800087834b00dfff07000802be000a03be0061
:10429000000006002fb29700bfb297004fb39700ff
:1042a000dfb3970000000600881f78001800200088
:1042b000881f780089ff07008f87e9004f04780086
:1042c00000000600801feb0084ff07008f87e900d5
:1042d00000000600889fbe008a9fbe00e00f5000cd
:1042e000e08f5800e00f5900e08f59000c003d00ae
:1042f0006044b8006055b8000000540081805c0044
:1043000002015d0083815d00180020001500070098
:1043100008003d00180007000004eb00050037000e
:104320000004eb000f00070002003d001200070030
:1043300018002000dcff07000800e0000600320043
:104340006022b8006033b8000000520081805a003b
:1043500002015b0083815b004f05be004f04be007d
:1043600000000600e00f5200e08f5a00e00f5b00f3
:10437000e08f5b00000006006044b8006055b800a4
:104380000402540085825c0006035d0087835d00a3
:1043900000000600889fbe008a9fbe008c1f780028
:1043a000e00f5000e08f5800e00f5900e08f5900f7
:1043b0000d003d006044b8006055b8000000540096
:1043c00081805c0002015d0083815d001c00200093
:1043d0000820e10009a8e1000ab0e1000bb8e10003
:1043e0000d003d00080037000006eb00e00f520012
:1043f000e08f5a00e00f5b00e08f5b0006003d009d
:104400006044b8006055b8000402540085825c0026
:1044100006035d0087835d00aaff07000c00e00033
:10442000060032006022b8006033b800000052007d
:1044300081805a0002015b0083815b004f06780097
:104440004f05be004f04be00000006000000000043
:104450002800fa00889fbe008a9fbe008c9fbe0085
:1044600007067800878669000c003b00030478008b
:104470008704780008f0a10009f0a100840f500023
:10448000858f5800860f5900890f5c0003003300a8
:104490000cf0a20001003a000cf0a10001fe0700a0
:1044a0006400e1005f003200780147006408e10029
:1044b000610032006c014700748557003200be0075
:1044c0001201be003a04be001a05be001e03900091
:1044d000be0a90008503530006003d000004fd0065
:1044e0008104fd000205fd008305fd008703ea004d
:1044f000050378000df8a3000400320060041400e6
:10450000e0841c0060051d00e0851d006022b800ed
:104510007d0320000d38e1008006eb000b00390020
:104520004433dd00f300b20083017300390037002b
:10453000848272000d027800e10664008b85d10050
:104540000a85d3008984d3000884d3008703e90057
:10455000f7ff3b0008004000898048000a0149003d
:104560008b81490004003b0060001000e0801800cf
:1045700060011900e08119000358a300090032000e
:104580008d82720084827200610260008301d1001a
:104590000281d3008180d3000080d3000603e800ad
:1045a0001b0037000348a30017003a000600e00094
:1045b000170034000603e9000d00a30000004800c6
:1045c0008180480002014900838149000348a3001b
:1045d0000f003a000600e000090034000603e9007d
:1045e00000004000818048000201490083814900a9
:1045f00001003a000003eb000348a300f5ff32007e
:104600006022b80002003700848272006182660076
:1046100078fd070003f0a1000cf0a70003f0a00054
:10462000b4fd3700640147006408e10002003a006d
:104630000df8a300acfd3a003200be001201be002e
:10464000acfd370000000000889fbe008a9fbe00be
:104650008c9fbe000404be000605be00809fbe0005
:10466000829fbe002f000700040678000800be00ed
:104670000a01be002b000700840678004f03be002d
:104680004f02be008d4f76007fb0970013003300bd
:10469000f0ff2f008b8f6b0006003b000d066600bd
:1046a0000c00a7000a00370007f0a6001000200049
:1046b0000a003700880f5200898f5a008a0f5b006a
:1046c0008b8f5b00030039001000200001003e00ca
:1046d0000000200007f0a7000000ea004f06be001f
:1046e0004f05be004f04be0000000600e4824000fb
:1046f0001078a30007003200640240001178a30084
:104700003400be001401be00040032000330a700d4
:10471000000006003500be001501be000330a000f9
:104720000000060005ff2700058261000700320037
:104730000428e10001003200240005000600070003
:1047400001003a00440005000408050002000700cb
:10475000f9ff3a00140005006f82610081027000c9
:10476000850271008502720000000600800078005a
:104770005002be005003be004439de00f700b20014
:10478000f37f200003016100090032000218e100fc
:1047900016003a0085017200830173008381730063
:1047a0000008200015003a004000200013003700e8
:1047b00085017200830173008381730005003a0054
:1047c00004a8be0006a8be00100020000b003700a1
:1047d0000201e9000402420085824a0006034b0000
:1047e00087834b000748a300f9ff32000740a00071
:1047f00004a8be0006a8be0020002000800098008b
:104800009200980000000600881f780003047800da
:104810000300e00007003d0060001000e080180089
:1048200060011900e081190002003b0001f02d0039
:10483000030037000400070008f0a70003f0a00001
:104840004f04780000000600889fbe0000827000c0
:1048500004027100048271002400320036432000fb
:10486000c50020008383cf000a0039000541b10054
:104870008283cf00070039000541b1008183cf005a
:10488000040039000541b1008083cf0001003900e8
:104890000541b10085c353006022b8001200320008
:1048a0000a003b0084827200610260008301d10033
:1048b0000281d3008180d3000080d3000603e8008a
:1048c0008743e800f7ff3a00070037000000400088
:1048d0008180480002014900838149000603e90004
:1048e0008743e900f9ff3a00c2fc07004f04be000d
:0448f00000000600be
:020000040000fa
:1048f400415400002b43000050420000523d000090
:10490400310000004e4f000020430000617200009f
:1049140072690000657200000d0000006c6c0000fc
:10492400616d0000616e0000646f00002e2e0000b7
:104934002e0d00000036000000330000002b0000a4
:104944004353000051000000524100004e47000054
:10495400003200000030000000370000004d00006d
:104964004f200000434f00004e4e0000004d000059
:104974004f200000524900004e470000003800005c
:1049840000340000000a00002b53000050450000d2
:10499400414b0000455200003a2000003100000065
:1049a4002b4300004d5400003a2000000053000047
:1049b40045540000204e0000554d00000047000003
:1049c40045540000204e0000554d0000002b00000f
:1049d40043500000425200003a0000002b43000004
:1049e4004d45000020450000525200004f52000087
:1049f400002b0000434c0000495000003a00000026
:104a04004154000045300000763000007130000051
:104a140000410000545800003400000041540000dc
:104a24002b43000056480000553d000030000000b4
:104a3400415400002b4300004d470000463d000058
:104a440031000000415400002b4300004c49000099
:104a5400503d000031000000415400002b43000091
:104a640049550000524300003d3100000041000060
:104a7400542b00005349000044450000543d0000fd
:104a8400302c000030000000415400002b4d000089
:104a94004f520000494e0000473d00003100000025
:104aa400415400002b4300004e4d0000493d0000de
:104ab400322c0000322c0000302c0000302c00007e
:104ac40030000000415400002b4300004d4700001b
:104ad400443d0000312c000034000000415400002b
:104ae4002657000000410000542b000043500000f2
:104af400425200003d250000640d0000002e00001d
:104b040000410000542b00004350000042570000b5
:104b14003d250000640d000000410000542b0000fe
:104b240043500000425700003d250000642c000063
:104b340022250000732200002c31000034350000cf
:104b44002c2200004543000042250000642200009e
:104b54000d000000415400002b43000050420000af
:104b6400573d0000256400002c220000257300003e
:104b7400222c000031320000392c000022450000b4
:104b84004342000025640000220d000000410000a3
:104b9400542b000043500000425700003d25000004
:104ba400642c000022250000732200002c31000038
:104bb400343500002c220000524f00004e44000007
:104bc40041250000642200000d0000004154000053
:104bd4002b43000050420000573d000025640000b4
:104be4002c22000025730000222c0000313200002a
:104bf400392c0000225200004f4e000044410000b6
:104c040025640000220d0000004e00004f2000002b
:104c14004841000059200000434500004e54000064
:104c2400524100004c45000053200000434f000057
:104c34004e46000049470000555200004144000020
:104c44004153000000430000313a00002573000086
:104c540020520000313a0000257300000043000098
:104c6400313a00002573000020520000313a000060
:104c74002573000020430000323a00002573000031
:104c840020520000323a0000257300000043000067
:104c9400313a00002573000020520000313a000030
:104ca4002573000020430000323a00002573000001
:104cb40020520000323a0000257300002043000017
:104cc400333a00002573000020520000333a0000fc
:104cd4002573000000430000313a000025730000f2
:104ce40020520000313a00002573000020430000e8
:104cf400323a00002573000020520000323a0000ce
:104d04002573000020430000333a0000257300009f
:104d140020520000333a00002573000020430000b5
:104d2400343a00002573000020520000343a000099
:104d340025730000004300003125000073200000ab
:104d4400523100002573000020430000322500008a
:104d5400732000005232000025730000204300003d
:104d64003325000073200000523300002573000037
:104d7400204300003425000073200000523400005a
:104d84002573000020430000352500007320000037
:104d94005235000025730000006e0000756d0000a0
:104da400657200006f3a0000256400002d2d00009c
:104db4006365000074720000616c00003a25000015
:104dc400642d00002d250000640d0000004100004a
:104dd40054440000257300003b0d00000041000016
:104de400542b0000434d0000475300003d220000b7
:104df400257300002200000025730000004100001c
:104e04005448000000420000617400006572000014
:104e14006961000020620000616a0000613a0000dc
:104e24002056000042410000543d0000253200009d
:104e34002e310000660000004154000041000000d3
:104e440056420000415400003d250000322e00006f
:104e5400316600003b560000505600003d2500001e
:104e6400322e0000316600003b50000075650000e2
:104e740072740000613d0000256400000000000021
:104e8400494e000049430000494100004e440000df
:104e94004f2e00002e2e00000d0000004154000093
:104ea4002b4300005351000000770000617600009e
:104eb400656300006f6d0000210000007265000052
:104ec4007365000074200000707200006f670000ba
:104ed400726100006d610000646f00000d0000004d
:020000040000fa
:104ee4000200fa00004f7800604180000000e000fa
:104ef40005003a00af010700a0472a00d9080700bf
:104f04001000200060418800470507005ec8bf000c
:104f14000004e0000300320010ca2000d10807009a
:104f24005e68ef001e4078000004e00002003200da
:104f3400f400070000438800004380008000eb0079
:104f4400f200200003002000820f5000838f5800dd
:104f540093003e00006001008a0037001b00370008
:104f640020003700220037003300370045003700a7
:104f7400520037005b0037002f0037000a0037006b
:104f84000500370038003700870037005900370024
:104f94005b0037006600370010c0b30062e8b7005a
:104fa4001628ef00870037006268ef005a28ef00e8
:104fb400b140800070252000808f50007c003600b6
:104fc400020507001628ef007e0037005668ef0040
:104fd40030002000b04188009821a9006028ef002b
:104fe40078003700a60407006028ef00750037003a
:104ff40062c8bf000004e0000600320040482a00f6
:10500400801f7800aff507008f87e900d8040700f8
:10501400040037003628ef005668ef0098e1a90035
:10502400900507006428ef0010c0b3008005070056
:105034006028ef006300370062c8bf000004e0008e
:1050440003003200ca0407006028ef005d00370047
:105054005668ef009821a90020002000b041880084
:105064006028ef00570037009821a9002000200095
:10507400b0418800a30a07005668ef006028ef00db
:1050840050003700204380000000e80020438800df
:1050940020438000e10f500006003400290507007a
:1050a4001628ef0010c0b30056e8b70090002000a7
:1050b400004388006028ef004200370034020700f4
:1050c400170207000004e000040032007000200012
:1050d400004388006428ef003a0037006028ef009e
:1050e40038003700b90407001d0507006028ef00e9
:1050f40034003700900107006028ef0031003700ca
:10510400304380000000e00005003200690207001f
:105114000004e000280032006028ef002900370076
:1051240040020700100020003043880025003700ab
:10513400f09e20008040eb0001487800009f200092
:105144008040eb0001487800109f20008040eb0075
:1051540001487800209f20008040eb00014878003f
:1051640020438000e10f5000040034009000200030
:10517400004388006428ef00120037006028ef0025
:10518400100037006628ef0098e1a90056c8bf0058
:105194000004e0000a003a006268ef0009003700ea
:1051a4000000000007003700000000000500370081
:1051b4000000000003003700000000000100370079
:1051c40000000000304080000000e0001b003200be
